{
  "contractName": "Intermediary",
  "abi": [
    {
      "inputs": [
        {
          "internalType": "contract Token",
          "name": "_neoToken",
          "type": "address"
        },
        {
          "internalType": "contract Token",
          "name": "_usdtj",
          "type": "address"
        }
      ],
      "stateMutability": "nonpayable",
      "type": "constructor"
    },
    {
      "inputs": [
        {
          "internalType": "address",
          "name": "",
          "type": "address"
        }
      ],
      "name": "depositStakingBalance",
      "outputs": [
        {
          "internalType": "uint256",
          "name": "",
          "type": "uint256"
        }
      ],
      "stateMutability": "view",
      "type": "function",
      "constant": true
    },
    {
      "inputs": [
        {
          "internalType": "uint256",
          "name": "",
          "type": "uint256"
        }
      ],
      "name": "investors",
      "outputs": [
        {
          "internalType": "address",
          "name": "",
          "type": "address"
        }
      ],
      "stateMutability": "view",
      "type": "function",
      "constant": true
    },
    {
      "inputs": [
        {
          "internalType": "address",
          "name": "",
          "type": "address"
        }
      ],
      "name": "isStaking",
      "outputs": [
        {
          "internalType": "bool",
          "name": "",
          "type": "bool"
        }
      ],
      "stateMutability": "view",
      "type": "function",
      "constant": true
    },
    {
      "inputs": [],
      "name": "name",
      "outputs": [
        {
          "internalType": "string",
          "name": "",
          "type": "string"
        }
      ],
      "stateMutability": "view",
      "type": "function",
      "constant": true
    },
    {
      "inputs": [],
      "name": "owner",
      "outputs": [
        {
          "internalType": "address",
          "name": "",
          "type": "address"
        }
      ],
      "stateMutability": "view",
      "type": "function",
      "constant": true
    },
    {
      "inputs": [
        {
          "internalType": "address",
          "name": "",
          "type": "address"
        }
      ],
      "name": "reward",
      "outputs": [
        {
          "internalType": "uint256",
          "name": "",
          "type": "uint256"
        }
      ],
      "stateMutability": "view",
      "type": "function",
      "constant": true
    },
    {
      "inputs": [
        {
          "internalType": "address",
          "name": "",
          "type": "address"
        }
      ],
      "name": "staked",
      "outputs": [
        {
          "internalType": "bool",
          "name": "",
          "type": "bool"
        }
      ],
      "stateMutability": "view",
      "type": "function",
      "constant": true
    },
    {
      "inputs": [
        {
          "internalType": "uint256",
          "name": "_amount",
          "type": "uint256"
        }
      ],
      "name": "stake",
      "outputs": [],
      "stateMutability": "nonpayable",
      "type": "function"
    },
    {
      "inputs": [],
      "name": "unstake",
      "outputs": [],
      "stateMutability": "nonpayable",
      "type": "function"
    },
    {
      "inputs": [],
      "name": "claim",
      "outputs": [],
      "stateMutability": "nonpayable",
      "type": "function"
    }
  ],
  "bytecode": "0x60806040526040518060400160405280600c81526020017f496e7465726d6564696172790000000000000000000000000000000000000000815250600090805190602001906200005192919062000150565b503480156200005f57600080fd5b50604051620013a2380380620013a2833981810160405281019062000085919062000217565b81600260006101000a81548173ffffffffffffffffffffffffffffffffffffffff021916908373ffffffffffffffffffffffffffffffffffffffff16021790555080600360006101000a81548173ffffffffffffffffffffffffffffffffffffffff021916908373ffffffffffffffffffffffffffffffffffffffff16021790555033600160006101000a81548173ffffffffffffffffffffffffffffffffffffffff021916908373ffffffffffffffffffffffffffffffffffffffff16021790555050506200031f565b8280546200015e90620002a0565b90600052602060002090601f016020900481019282620001825760008555620001ce565b82601f106200019d57805160ff1916838001178555620001ce565b82800160010185558215620001ce579182015b82811115620001cd578251825591602001919060010190620001b0565b5b509050620001dd9190620001e1565b5090565b5b80821115620001fc576000816000905550600101620001e2565b5090565b600081519050620002118162000305565b92915050565b600080604083850312156200022b57600080fd5b60006200023b8582860162000200565b92505060206200024e8582860162000200565b9150509250929050565b6000620002658262000280565b9050919050565b6000620002798262000258565b9050919050565b600073ffffffffffffffffffffffffffffffffffffffff82169050919050565b60006002820490506001821680620002b957607f821691505b60208210811415620002d057620002cf620002d6565b5b50919050565b7f4e487b7100000000000000000000000000000000000000000000000000000000600052602260045260246000fd5b62000310816200026c565b81146200031c57600080fd5b50565b611073806200032f6000396000f3fe608060405234801561001057600080fd5b50600436106100bb576000357c0100000000000000000000000000000000000000000000000000000000900480636353586b116100835780636353586b146101525780636f49712b146101825780638da5cb5b146101b257806398807d84146101d0578063a694fc3a14610200576100bb565b806306fdde03146100c05780632def6620146100de5780632ee2e5c1146100e85780633feb5f2b146101185780634e71d92d14610148575b600080fd5b6100c861021c565b6040516100d59190610d24565b60405180910390f35b6100e66102aa565b005b61010260048036038101906100fd9190610ac7565b61049d565b60405161010f9190610da6565b60405180910390f35b610132600480360381019061012d9190610b19565b6104b5565b60405161013f9190610c8e565b60405180910390f35b6101506104f4565b005b61016c60048036038101906101679190610ac7565b61073b565b6040516101799190610da6565b60405180910390f35b61019c60048036038101906101979190610ac7565b610753565b6040516101a99190610d09565b60405180910390f35b6101ba610773565b6040516101c79190610c8e565b60405180910390f35b6101ea60048036038101906101e59190610ac7565b610799565b6040516101f79190610d09565b60405180910390f35b61021a60048036038101906102159190610b19565b6107b9565b005b6000805461022990610edf565b80601f016020809104026020016040519081016040528092919081815260200182805461025590610edf565b80156102a25780601f10610277576101008083540402835291602001916102a2565b820191906000526020600020905b81548152906001019060200180831161028557829003601f168201915b505050505081565b6000600560003373ffffffffffffffffffffffffffffffffffffffff1673ffffffffffffffffffffffffffffffffffffffff16815260200190815260200160002054905060008111610331576040517f08c379a000000000000000000000000000000000000000000000000000000000815260040161032890610d66565b60405180910390fd5b600360009054906101000a900473ffffffffffffffffffffffffffffffffffffffff1673ffffffffffffffffffffffffffffffffffffffff1663a9059cbb33836040518363ffffffff167c01000000000000000000000000000000000000000000000000000000000281526004016103aa929190610ce0565b602060405180830381600087803b1580156103c457600080fd5b505af11580156103d8573d6000803e3d6000fd5b505050506040513d601f19601f820116820180604052508101906103fc9190610af0565b506000600560003373ffffffffffffffffffffffffffffffffffffffff1673ffffffffffffffffffffffffffffffffffffffff168152602001908152602001600020819055506000600860003373ffffffffffffffffffffffffffffffffffffffff1673ffffffffffffffffffffffffffffffffffffffff16815260200190815260200160002060006101000a81548160ff02191690831515021790555050565b60056020528060005260406000206000915090505481565b600481815481106104c557600080fd5b906000526020600020016000915054906101000a900473ffffffffffffffffffffffffffffffffffffffff1681565b600160009054906101000a900473ffffffffffffffffffffffffffffffffffffffff1673ffffffffffffffffffffffffffffffffffffffff163373ffffffffffffffffffffffffffffffffffffffff1614610584576040517f08c379a000000000000000000000000000000000000000000000000000000000815260040161057b90610d46565b60405180910390fd5b60005b600480549050811015610738576000600482815481106105d0577f4e487b7100000000000000000000000000000000000000000000000000000000600052603260045260246000fd5b9060005260206000200160009054906101000a900473ffffffffffffffffffffffffffffffffffffffff1690506000600a600560008473ffffffffffffffffffffffffffffffffffffffff1673ffffffffffffffffffffffffffffffffffffffff1681526020019081526020016000205461064b9190610e33565b9050600081111561072357600260009054906101000a900473ffffffffffffffffffffffffffffffffffffffff1673ffffffffffffffffffffffffffffffffffffffff1663a9059cbb83836040518363ffffffff167c01000000000000000000000000000000000000000000000000000000000281526004016106cf929190610ce0565b602060405180830381600087803b1580156106e957600080fd5b505af11580156106fd573d6000803e3d6000fd5b505050506040513d601f19601f820116820180604052508101906107219190610af0565b505b5050808061073090610f11565b915050610587565b50565b60066020528060005260406000206000915090505481565b60086020528060005260406000206000915054906101000a900460ff1681565b600160009054906101000a900473ffffffffffffffffffffffffffffffffffffffff1681565b60076020528060005260406000206000915054906101000a900460ff1681565b600081116107fc576040517f08c379a00000000000000000000000000000000000000000000000000000000081526004016107f390610d86565b60405180910390fd5b600360009054906101000a900473ffffffffffffffffffffffffffffffffffffffff1673ffffffffffffffffffffffffffffffffffffffff166323b872dd3330846040518463ffffffff167c010000000000000000000000000000000000000000000000000000000002815260040161087793929190610ca9565b602060405180830381600087803b15801561089157600080fd5b505af11580156108a5573d6000803e3d6000fd5b505050506040513d601f19601f820116820180604052508101906108c99190610af0565b5080600560003373ffffffffffffffffffffffffffffffffffffffff1673ffffffffffffffffffffffffffffffffffffffff16815260200190815260200160002060008282546109199190610ddd565b92505081905550600760003373ffffffffffffffffffffffffffffffffffffffff1673ffffffffffffffffffffffffffffffffffffffff16815260200190815260200160002060009054906101000a900460ff166109d5576004339080600181540180825580915050600190039060005260206000200160009091909190916101000a81548173ffffffffffffffffffffffffffffffffffffffff021916908373ffffffffffffffffffffffffffffffffffffffff1602179055505b6001600860003373ffffffffffffffffffffffffffffffffffffffff1673ffffffffffffffffffffffffffffffffffffffff16815260200190815260200160002060006101000a81548160ff0219169083151502179055506001600760003373ffffffffffffffffffffffffffffffffffffffff1673ffffffffffffffffffffffffffffffffffffffff16815260200190815260200160002060006101000a81548160ff02191690831515021790555050565b600081359050610a9781610ff8565b92915050565b600081519050610aac8161100f565b92915050565b600081359050610ac181611026565b92915050565b600060208284031215610ad957600080fd5b6000610ae784828501610a88565b91505092915050565b600060208284031215610b0257600080fd5b6000610b1084828501610a9d565b91505092915050565b600060208284031215610b2b57600080fd5b6000610b3984828501610ab2565b91505092915050565b610b4b81610e64565b82525050565b610b5a81610e76565b82525050565b6000610b6b82610dc1565b610b758185610dcc565b9350610b85818560208601610eac565b610b8e81610fe7565b840191505092915050565b6000610ba6601883610dcc565b91507f63616c6c6572206d75737420626520746865206f776e657200000000000000006000830152602082019050919050565b6000610be6602883610dcc565b91507f7374616b696e672062616c616e63652063616e6e6f74206265206c657373207460008301527f68616e207a65726f0000000000000000000000000000000000000000000000006020830152604082019050919050565b6000610c4c601283610dcc565b91507f616d6f756e742063616e6e6f74206265203000000000000000000000000000006000830152602082019050919050565b610c8881610ea2565b82525050565b6000602082019050610ca36000830184610b42565b92915050565b6000606082019050610cbe6000830186610b42565b610ccb6020830185610b42565b610cd86040830184610c7f565b949350505050565b6000604082019050610cf56000830185610b42565b610d026020830184610c7f565b9392505050565b6000602082019050610d1e6000830184610b51565b92915050565b60006020820190508181036000830152610d3e8184610b60565b905092915050565b60006020820190508181036000830152610d5f81610b99565b9050919050565b60006020820190508181036000830152610d7f81610bd9565b9050919050565b60006020820190508181036000830152610d9f81610c3f565b9050919050565b6000602082019050610dbb6000830184610c7f565b92915050565b600081519050919050565b600082825260208201905092915050565b6000610de882610ea2565b9150610df383610ea2565b9250827fffffffffffffffffffffffffffffffffffffffffffffffffffffffffffffffff03821115610e2857610e27610f5a565b5b828201905092915050565b6000610e3e82610ea2565b9150610e4983610ea2565b925082610e5957610e58610f89565b5b828204905092915050565b6000610e6f82610e82565b9050919050565b60008115159050919050565b600073ffffffffffffffffffffffffffffffffffffffff82169050919050565b6000819050919050565b60005b83811015610eca578082015181840152602081019050610eaf565b83811115610ed9576000848401525b50505050565b60006002820490506001821680610ef757607f821691505b60208210811415610f0b57610f0a610fb8565b5b50919050565b6000610f1c82610ea2565b91507fffffffffffffffffffffffffffffffffffffffffffffffffffffffffffffffff821415610f4f57610f4e610f5a565b5b600182019050919050565b7f4e487b7100000000000000000000000000000000000000000000000000000000600052601160045260246000fd5b7f4e487b7100000000000000000000000000000000000000000000000000000000600052601260045260246000fd5b7f4e487b7100000000000000000000000000000000000000000000000000000000600052602260045260246000fd5b6000601f19601f8301169050919050565b61100181610e64565b811461100c57600080fd5b50565b61101881610e76565b811461102357600080fd5b50565b61102f81610ea2565b811461103a57600080fd5b5056fea26469706673582212200dbf4e41d374f29cf9f02fd498cb981dec5dd2dbda7bb741336d7f539ed726a064736f6c63430008000033",
  "immutableReferences": {},
  "source": "// SPDX-License-Identifier: MIT\npragma solidity ^0.8.0;\n\n\ninterface Token {  \n    function transfer(address to, uint256 value) external returns (bool);\n    function transferFrom(address from, address to, uint256 value) external returns (bool);\n    function balanceOf(address account) external view returns (uint256);\n    function allowance(address owner, address spender) external view returns (uint256);\n}\n\ncontract Intermediary {\n    string public name = \"Intermediary\";\n    address public owner;\n\n    Token neoToken;\n    Token usdtj;\n\n    address[] public investors;\n\n\n\n    mapping(address => uint256) public depositStakingBalance;\n    mapping(address => uint256) public reward;\n\n\n    mapping(address => bool) public staked;\n    mapping(address => bool) public isStaking;\n\n\n    constructor(Token _neoToken, Token _usdtj) {\n        neoToken = _neoToken;\n        usdtj = _usdtj;\n        owner = msg.sender;\n    }\n    function getBalance(address ContractAddress ) private view returns(uint256 _amount){\n        return Token(ContractAddress).balanceOf(address(this));\n    }\n\n    function stake(uint256 _amount) public {\n        require(_amount > 0, \"amount cannot be 0\");\n        \n\n        usdtj.transferFrom(msg.sender, address(this), _amount);\n        depositStakingBalance[msg.sender] += _amount;\n\n        if (!staked[msg.sender]) {\n            investors.push(msg.sender);\n        }\n\n        isStaking[msg.sender] = true;\n        staked[msg.sender] = true;\n    }\n\n    function unstake() public {\n        uint256 balance = depositStakingBalance[msg.sender];\n        // require the amount to be greater than zero\n        require(balance > 0, \"staking balance cannot be less than zero\");\n\n        \n\n        // transfer the tokens to the specified contract address from our bank\n        usdtj.transfer(msg.sender, balance);\n\n        // reset staking balance\n        depositStakingBalance[msg.sender] = 0;\n\n        // Update Staking Status\n        isStaking[msg.sender] = false;\n    }\n\n  //  function claim() public {\n  //      require(isStaking[msg.sender] == true, \"You are not staking\");\n  //      require(\n  //          depositStakingBalance[msg.sender] > 0,\n  //          \"You don't have any tokens\"\n  //      );\n\n  //      uint256 userReward = depositStakingBalance[msg.sender] / 10 ; // reward  10%\n\n  //      require(userReward > 0, \"The amount must be more than zero\");\n  //      require(\n  //          neoToken.balanceOf(address(this)) >= userReward,\n  //          \"The amount must be more than zero\"\n  //      );\n\n  //      neoToken.transfer(msg.sender, userReward);\n  //\n\n    function claim() public {\n        //require(isStaking[msg.sender] == true, \"You are not staking\");\n        require(msg.sender == owner, 'caller must be the owner');\n        for   (uint256 i = 0; i < investors.length; i++) {\n            address investor = investors[i];\n            uint256 balance = depositStakingBalance[investor] / 10 ; // reward  10%\n            if (balance > 0) {\n                neoToken.transfer(investor, balance);\n            }\n        }\n    }\n}\n\n\n",
  "sourcePath": "/Users/nio/Desktop/Project_Solidity_Start2Impact 2/staking/contracts/Intermedary.sol",
  "compiler": {
    "name": "solc",
    "version": "0.8.0+commit.c7dfd78e.Emscripten.clang"
  },
  "schemaVersion": "3.4.10",
  "updatedAt": "2022-11-22T16:25:54.805Z",
  "networkType": "ethereum",
  "devdoc": {
    "kind": "dev",
    "methods": {},
    "version": 1
  },
  "userdoc": {
    "kind": "user",
    "methods": {},
    "version": 1
  }
}